{
  "contractName": "Estate",
  "abi": [
    {
      "inputs": [
        {
          "internalType": "uint256",
          "name": "",
          "type": "uint256"
        }
      ],
      "name": "estates",
      "outputs": [
        {
          "internalType": "address",
          "name": "owner",
          "type": "address"
        },
        {
          "internalType": "string",
          "name": "info",
          "type": "string"
        },
        {
          "internalType": "uint256",
          "name": "square",
          "type": "uint256"
        },
        {
          "internalType": "bool",
          "name": "sale_status",
          "type": "bool"
        }
      ],
      "stateMutability": "view",
      "type": "function",
      "constant": true
    },
    {
      "inputs": [
        {
          "internalType": "uint256",
          "name": "",
          "type": "uint256"
        }
      ],
      "name": "sales",
      "outputs": [
        {
          "internalType": "uint256",
          "name": "estate_id",
          "type": "uint256"
        },
        {
          "internalType": "address",
          "name": "owner",
          "type": "address"
        },
        {
          "internalType": "uint256",
          "name": "price",
          "type": "uint256"
        },
        {
          "internalType": "address payable",
          "name": "customer",
          "type": "address"
        },
        {
          "internalType": "bool",
          "name": "status",
          "type": "bool"
        }
      ],
      "stateMutability": "view",
      "type": "function",
      "constant": true
    },
    {
      "inputs": [
        {
          "internalType": "address",
          "name": "_admin",
          "type": "address"
        },
        {
          "internalType": "string",
          "name": "password",
          "type": "string"
        }
      ],
      "name": "set_admin",
      "outputs": [],
      "stateMutability": "nonpayable",
      "type": "function"
    },
    {
      "inputs": [],
      "name": "get_admin",
      "outputs": [
        {
          "internalType": "address",
          "name": "",
          "type": "address"
        }
      ],
      "stateMutability": "nonpayable",
      "type": "function"
    },
    {
      "inputs": [],
      "name": "get_adminPassword",
      "outputs": [
        {
          "internalType": "string",
          "name": "",
          "type": "string"
        }
      ],
      "stateMutability": "nonpayable",
      "type": "function"
    },
    {
      "inputs": [
        {
          "internalType": "uint256",
          "name": "index",
          "type": "uint256"
        }
      ],
      "name": "show_name",
      "outputs": [
        {
          "internalType": "address",
          "name": "",
          "type": "address"
        }
      ],
      "stateMutability": "view",
      "type": "function",
      "constant": true
    },
    {
      "inputs": [
        {
          "internalType": "uint256",
          "name": "index",
          "type": "uint256"
        }
      ],
      "name": "show_info",
      "outputs": [
        {
          "internalType": "string",
          "name": "",
          "type": "string"
        }
      ],
      "stateMutability": "view",
      "type": "function",
      "constant": true
    },
    {
      "inputs": [
        {
          "internalType": "uint256",
          "name": "index",
          "type": "uint256"
        }
      ],
      "name": "show_square",
      "outputs": [
        {
          "internalType": "uint256",
          "name": "",
          "type": "uint256"
        }
      ],
      "stateMutability": "view",
      "type": "function",
      "constant": true
    },
    {
      "inputs": [
        {
          "internalType": "uint256",
          "name": "index",
          "type": "uint256"
        }
      ],
      "name": "show_status",
      "outputs": [
        {
          "internalType": "bool",
          "name": "",
          "type": "bool"
        }
      ],
      "stateMutability": "view",
      "type": "function",
      "constant": true
    },
    {
      "inputs": [
        {
          "internalType": "address",
          "name": "owner",
          "type": "address"
        },
        {
          "internalType": "string",
          "name": "info",
          "type": "string"
        },
        {
          "internalType": "uint256",
          "name": "square",
          "type": "uint256"
        }
      ],
      "name": "create_estate",
      "outputs": [],
      "stateMutability": "nonpayable",
      "type": "function"
    },
    {
      "inputs": [
        {
          "internalType": "uint256",
          "name": "e_id",
          "type": "uint256"
        },
        {
          "internalType": "uint256",
          "name": "price",
          "type": "uint256"
        },
        {
          "internalType": "address",
          "name": "owner",
          "type": "address"
        }
      ],
      "name": "create_sale",
      "outputs": [],
      "stateMutability": "nonpayable",
      "type": "function"
    },
    {
      "inputs": [
        {
          "internalType": "uint256",
          "name": "s_id",
          "type": "uint256"
        },
        {
          "internalType": "address payable",
          "name": "owner",
          "type": "address"
        },
        {
          "internalType": "uint256",
          "name": "price",
          "type": "uint256"
        }
      ],
      "name": "buy",
      "outputs": [],
      "stateMutability": "payable",
      "type": "function",
      "payable": true
    },
    {
      "inputs": [
        {
          "internalType": "uint256",
          "name": "s_id",
          "type": "uint256"
        },
        {
          "internalType": "uint256",
          "name": "u_id",
          "type": "uint256"
        },
        {
          "internalType": "address",
          "name": "owner",
          "type": "address"
        }
      ],
      "name": "confirm_sale",
      "outputs": [],
      "stateMutability": "nonpayable",
      "type": "function"
    },
    {
      "inputs": [
        {
          "internalType": "uint256",
          "name": "s_id",
          "type": "uint256"
        }
      ],
      "name": "get_sale",
      "outputs": [
        {
          "internalType": "uint256",
          "name": "",
          "type": "uint256"
        },
        {
          "internalType": "address",
          "name": "",
          "type": "address"
        },
        {
          "internalType": "uint256",
          "name": "",
          "type": "uint256"
        },
        {
          "internalType": "address",
          "name": "",
          "type": "address"
        },
        {
          "internalType": "bool",
          "name": "",
          "type": "bool"
        }
      ],
      "stateMutability": "view",
      "type": "function",
      "constant": true
    }
  ],
  "bytecode": "0x6080604052600060015560006003556000600460006101000a81548173ffffffffffffffffffffffffffffffffffffffff021916908373ffffffffffffffffffffffffffffffffffffffff1602179055506040518060200160405280600081525060059081620000709190620002ff565b503480156200007e57600080fd5b50620003e6565b600081519050919050565b7f4e487b7100000000000000000000000000000000000000000000000000000000600052604160045260246000fd5b7f4e487b7100000000000000000000000000000000000000000000000000000000600052602260045260246000fd5b600060028204905060018216806200010757607f821691505b6020821081036200011d576200011c620000bf565b5b50919050565b60008190508160005260206000209050919050565b60006020601f8301049050919050565b600082821b905092915050565b600060088302620001877fffffffffffffffffffffffffffffffffffffffffffffffffffffffffffffffff8262000148565b62000193868362000148565b95508019841693508086168417925050509392505050565b6000819050919050565b6000819050919050565b6000620001e0620001da620001d484620001ab565b620001b5565b620001ab565b9050919050565b6000819050919050565b620001fc83620001bf565b620002146200020b82620001e7565b84845462000155565b825550505050565b600090565b6200022b6200021c565b62000238818484620001f1565b505050565b5b8181101562000260576200025460008262000221565b6001810190506200023e565b5050565b601f821115620002af57620002798162000123565b620002848462000138565b8101602085101562000294578190505b620002ac620002a38562000138565b8301826200023d565b50505b505050565b600082821c905092915050565b6000620002d460001984600802620002b4565b1980831691505092915050565b6000620002ef8383620002c1565b9150826002028217905092915050565b6200030a8262000085565b67ffffffffffffffff81111562000326576200032562000090565b5b620003328254620000ee565b6200033f82828562000264565b600060209050601f83116001811462000377576000841562000362578287015190505b6200036e8582620002e1565b865550620003de565b601f198416620003878662000123565b60005b82811015620003b1578489015182556001820191506020850194506020810190506200038a565b86831015620003d15784890151620003cd601f891682620002c1565b8355505b6001600288020188555050505b505050505050565b611b6080620003f66000396000f3fe6080604052600436106100dd5760003560e01c80639ae851261161007f578063bcbce3ca11610059578063bcbce3ca146102df578063cb19946014610308578063d70f83c214610345578063dd54585a14610385576100dd565b80639ae8512614610224578063ae286a7614610261578063b5f522f71461029e576100dd565b806354c7c612116100bb57806354c7c6121461016a5780636efc58341461019557806370358c4a146101be578063983fd396146101e7576100dd565b8063054e6d0e146100e25780631d86724c146101235780632afaca201461014e575b600080fd5b3480156100ee57600080fd5b5061010960048036038101906101049190611041565b6103ae565b60405161011a9594939291906110d9565b60405180910390f35b34801561012f57600080fd5b50610138610489565b60405161014591906111bc565b60405180910390f35b6101686004803603810190610163919061121c565b61051b565b005b34801561017657600080fd5b5061017f610635565b60405161018c919061126f565b60405180910390f35b3480156101a157600080fd5b506101bc60048036038101906101b791906113eb565b61065f565b005b3480156101ca57600080fd5b506101e560048036038101906101e0919061145a565b6107e0565b005b3480156101f357600080fd5b5061020e60048036038101906102099190611041565b610aee565b60405161021b91906111bc565b60405180910390f35b34801561023057600080fd5b5061024b60048036038101906102469190611041565b610b95565b604051610258919061126f565b60405180910390f35b34801561026d57600080fd5b5061028860048036038101906102839190611041565b610bd4565b60405161029591906114ad565b60405180910390f35b3480156102aa57600080fd5b506102c560048036038101906102c09190611041565b610bf3565b6040516102d69594939291906114d7565b60405180910390f35b3480156102eb57600080fd5b506103066004803603810190610301919061152a565b610c76565b005b34801561031457600080fd5b5061032f600480360381019061032a9190611041565b610ccb565b60405161033c9190611586565b60405180910390f35b34801561035157600080fd5b5061036c60048036038101906103679190611041565b610cf7565b60405161037c94939291906115a1565b60405180910390f35b34801561039157600080fd5b506103ac60048036038101906103a7919061145a565b610ddc565b005b600080600080600060026000878152602001908152602001600020600001546002600088815260200190815260200160002060010160009054906101000a900473ffffffffffffffffffffffffffffffffffffffff166002600089815260200190815260200160002060020154600260008a815260200190815260200160002060030160009054906101000a900473ffffffffffffffffffffffffffffffffffffffff16600260008b815260200190815260200160002060030160149054906101000a900460ff169450945094509450945091939590929450565b6060600580546104989061161c565b80601f01602080910402602001604051908101604052809291908181526020018280546104c49061161c565b80156105115780601f106104e657610100808354040283529160200191610511565b820191906000526020600020905b8154815290600101906020018083116104f457829003601f168201915b5050505050905090565b816002600085815260200190815260200160002060030160006101000a81548173ffffffffffffffffffffffffffffffffffffffff021916908373ffffffffffffffffffffffffffffffffffffffff16021790555060006002600085815260200190815260200160002060030160146101000a81548160ff021916908315150217905550600060026000858152602001908152602001600020600001549050600080600083815260200190815260200160002060030160006101000a81548160ff0219169083151502179055508273ffffffffffffffffffffffffffffffffffffffff166108fc839081150290604051600060405180830381858888f1935050505015801561062e573d6000803e3d6000fd5b5050505050565b6000600460009054906101000a900473ffffffffffffffffffffffffffffffffffffffff16905090565b600460009054906101000a900473ffffffffffffffffffffffffffffffffffffffff1673ffffffffffffffffffffffffffffffffffffffff163373ffffffffffffffffffffffffffffffffffffffff16146106ef576040517f08c379a00000000000000000000000000000000000000000000000000000000081526004016106e690611699565b60405180910390fd5b60405180608001604052808473ffffffffffffffffffffffffffffffffffffffff16815260200183815260200182815260200160001515815250600080600154815260200190815260200160002060008201518160000160006101000a81548173ffffffffffffffffffffffffffffffffffffffff021916908373ffffffffffffffffffffffffffffffffffffffff16021790555060208201518160010190816107999190611865565b506040820151816002015560608201518160030160006101000a81548160ff021916908315150217905550905050600180546107d59190611966565b600181905550505050565b600115156002600085815260200190815260200160002060030160149054906101000a900460ff1615151461084a576040517f08c379a0000000000000000000000000000000000000000000000000000000008152600401610841906119e6565b60405180910390fd5b6002600084815260200190815260200160002060010160009054906101000a900473ffffffffffffffffffffffffffffffffffffffff1673ffffffffffffffffffffffffffffffffffffffff168173ffffffffffffffffffffffffffffffffffffffff16146108ee576040517f08c379a00000000000000000000000000000000000000000000000000000000081526004016108e590611a78565b60405180910390fd5b60006002600085815260200190815260200160002060000154905060006002600086815260200190815260200160002060010160009054906101000a900473ffffffffffffffffffffffffffffffffffffffff16905060006002600087815260200190815260200160002060030160009054906101000a900473ffffffffffffffffffffffffffffffffffffffff16905060026000878152602001908152602001600020600201544710156109d8576040517f08c379a00000000000000000000000000000000000000000000000000000000081526004016109cf90611b0a565b60405180910390fd5b8173ffffffffffffffffffffffffffffffffffffffff166108fc60026000898152602001908152602001600020600201549081150290604051600060405180830381858888f19350505050158015610a34573d6000803e3d6000fd5b508060008085815260200190815260200160002060000160006101000a81548173ffffffffffffffffffffffffffffffffffffffff021916908373ffffffffffffffffffffffffffffffffffffffff16021790555060006002600088815260200190815260200160002060030160146101000a81548160ff021916908315150217905550600080600085815260200190815260200160002060030160006101000a81548160ff021916908315150217905550505050505050565b60606000808381526020019081526020016000206001018054610b109061161c565b80601f0160208091040260200160405190810160405280929190818152602001828054610b3c9061161c565b8015610b895780601f10610b5e57610100808354040283529160200191610b89565b820191906000526020600020905b815481529060010190602001808311610b6c57829003601f168201915b50505050509050919050565b600080600083815260200190815260200160002060000160009054906101000a900473ffffffffffffffffffffffffffffffffffffffff169050919050565b6000806000838152602001908152602001600020600201549050919050565b60026020528060005260406000206000915090508060000154908060010160009054906101000a900473ffffffffffffffffffffffffffffffffffffffff16908060020154908060030160009054906101000a900473ffffffffffffffffffffffffffffffffffffffff16908060030160149054906101000a900460ff16905085565b81600460006101000a81548173ffffffffffffffffffffffffffffffffffffffff021916908373ffffffffffffffffffffffffffffffffffffffff1602179055508060059081610cc69190611865565b505050565b600080600083815260200190815260200160002060030160009054906101000a900460ff169050919050565b60006020528060005260406000206000915090508060000160009054906101000a900473ffffffffffffffffffffffffffffffffffffffff1690806001018054610d409061161c565b80601f0160208091040260200160405190810160405280929190818152602001828054610d6c9061161c565b8015610db95780601f10610d8e57610100808354040283529160200191610db9565b820191906000526020600020905b815481529060010190602001808311610d9c57829003601f168201915b5050505050908060020154908060030160009054906101000a900460ff16905084565b8260008082815260200190815260200160002060000160009054906101000a900473ffffffffffffffffffffffffffffffffffffffff1673ffffffffffffffffffffffffffffffffffffffff163373ffffffffffffffffffffffffffffffffffffffff1614610e4a57600080fd5b6000151560008083815260200190815260200160002060030160009054906101000a900460ff16151514610e7d57600080fd5b6040518060a001604052808581526020018373ffffffffffffffffffffffffffffffffffffffff168152602001848152602001600073ffffffffffffffffffffffffffffffffffffffff168152602001600115158152506002600060035481526020019081526020016000206000820151816000015560208201518160010160006101000a81548173ffffffffffffffffffffffffffffffffffffffff021916908373ffffffffffffffffffffffffffffffffffffffff1602179055506040820151816002015560608201518160030160006101000a81548173ffffffffffffffffffffffffffffffffffffffff021916908373ffffffffffffffffffffffffffffffffffffffff16021790555060808201518160030160146101000a81548160ff021916908315150217905550905050600160008086815260200190815260200160002060030160006101000a81548160ff0219169083151502179055506001600354610feb9190611966565b60038190555050505050565b6000604051905090565b600080fd5b600080fd5b6000819050919050565b61101e8161100b565b811461102957600080fd5b50565b60008135905061103b81611015565b92915050565b60006020828403121561105757611056611001565b5b60006110658482850161102c565b91505092915050565b6110778161100b565b82525050565b600073ffffffffffffffffffffffffffffffffffffffff82169050919050565b60006110a88261107d565b9050919050565b6110b88161109d565b82525050565b60008115159050919050565b6110d3816110be565b82525050565b600060a0820190506110ee600083018861106e565b6110fb60208301876110af565b611108604083018661106e565b61111560608301856110af565b61112260808301846110ca565b9695505050505050565b600081519050919050565b600082825260208201905092915050565b60005b8381101561116657808201518184015260208101905061114b565b60008484015250505050565b6000601f19601f8301169050919050565b600061118e8261112c565b6111988185611137565b93506111a8818560208601611148565b6111b181611172565b840191505092915050565b600060208201905081810360008301526111d68184611183565b905092915050565b60006111e98261107d565b9050919050565b6111f9816111de565b811461120457600080fd5b50565b600081359050611216816111f0565b92915050565b60008060006060848603121561123557611234611001565b5b60006112438682870161102c565b935050602061125486828701611207565b92505060406112658682870161102c565b9150509250925092565b600060208201905061128460008301846110af565b92915050565b6112938161109d565b811461129e57600080fd5b50565b6000813590506112b08161128a565b92915050565b600080fd5b600080fd5b7f4e487b7100000000000000000000000000000000000000000000000000000000600052604160045260246000fd5b6112f882611172565b810181811067ffffffffffffffff82111715611317576113166112c0565b5b80604052505050565b600061132a610ff7565b905061133682826112ef565b919050565b600067ffffffffffffffff821115611356576113556112c0565b5b61135f82611172565b9050602081019050919050565b82818337600083830152505050565b600061138e6113898461133b565b611320565b9050828152602081018484840111156113aa576113a96112bb565b5b6113b584828561136c565b509392505050565b600082601f8301126113d2576113d16112b6565b5b81356113e284826020860161137b565b91505092915050565b60008060006060848603121561140457611403611001565b5b6000611412868287016112a1565b935050602084013567ffffffffffffffff81111561143357611432611006565b5b61143f868287016113bd565b92505060406114508682870161102c565b9150509250925092565b60008060006060848603121561147357611472611001565b5b60006114818682870161102c565b93505060206114928682870161102c565b92505060406114a3868287016112a1565b9150509250925092565b60006020820190506114c2600083018461106e565b92915050565b6114d1816111de565b82525050565b600060a0820190506114ec600083018861106e565b6114f960208301876110af565b611506604083018661106e565b61151360608301856114c8565b61152060808301846110ca565b9695505050505050565b6000806040838503121561154157611540611001565b5b600061154f858286016112a1565b925050602083013567ffffffffffffffff8111156115705761156f611006565b5b61157c858286016113bd565b9150509250929050565b600060208201905061159b60008301846110ca565b92915050565b60006080820190506115b660008301876110af565b81810360208301526115c88186611183565b90506115d7604083018561106e565b6115e460608301846110ca565b95945050505050565b7f4e487b7100000000000000000000000000000000000000000000000000000000600052602260045260246000fd5b6000600282049050600182168061163457607f821691505b602082108103611647576116466115ed565b5b50919050565b7f596f7520617265206e6f742061646d696e000000000000000000000000000000600082015250565b6000611683601183611137565b915061168e8261164d565b602082019050919050565b600060208201905081810360008301526116b281611676565b9050919050565b60008190508160005260206000209050919050565b60006020601f8301049050919050565b600082821b905092915050565b60006008830261171b7fffffffffffffffffffffffffffffffffffffffffffffffffffffffffffffffff826116de565b61172586836116de565b95508019841693508086168417925050509392505050565b6000819050919050565b600061176261175d6117588461100b565b61173d565b61100b565b9050919050565b6000819050919050565b61177c83611747565b61179061178882611769565b8484546116eb565b825550505050565b600090565b6117a5611798565b6117b0818484611773565b505050565b5b818110156117d4576117c960008261179d565b6001810190506117b6565b5050565b601f821115611819576117ea816116b9565b6117f3846116ce565b81016020851015611802578190505b61181661180e856116ce565b8301826117b5565b50505b505050565b600082821c905092915050565b600061183c6000198460080261181e565b1980831691505092915050565b6000611855838361182b565b9150826002028217905092915050565b61186e8261112c565b67ffffffffffffffff811115611887576118866112c0565b5b611891825461161c565b61189c8282856117d8565b600060209050601f8311600181146118cf57600084156118bd578287015190505b6118c78582611849565b86555061192f565b601f1984166118dd866116b9565b60005b82811015611905578489015182556001820191506020850194506020810190506118e0565b86831015611922578489015161191e601f89168261182b565b8355505b6001600288020188555050505b505050505050565b7f4e487b7100000000000000000000000000000000000000000000000000000000600052601160045260246000fd5b60006119718261100b565b915061197c8361100b565b925082820190508082111561199457611993611937565b5b92915050565b7f53616c65206d7573742062652061637469766500000000000000000000000000600082015250565b60006119d0601383611137565b91506119db8261199a565b602082019050919050565b600060208201905081810360008301526119ff816119c3565b9050919050565b7f4f6e6c7920746865206f776e65722063616e20636f6e6669726d20746865207360008201527f616c650000000000000000000000000000000000000000000000000000000000602082015250565b6000611a62602383611137565b9150611a6d82611a06565b604082019050919050565b60006020820190508181036000830152611a9181611a55565b9050919050565b7f436f6e747261637420646f6573206e6f74206861766520656e6f75676820626160008201527f6c616e6365000000000000000000000000000000000000000000000000000000602082015250565b6000611af4602583611137565b9150611aff82611a98565b604082019050919050565b60006020820190508181036000830152611b2381611ae7565b905091905056fea2646970667358221220ab9efab4a643b80a203d2e090a4a33c8805a95506953e4d4069817f63913eafe64736f6c63430008130033",
  "immutableReferences": {},
  "source": "//SPDX-License-Identifier: UNLICENSED\n\npragma solidity 0.8.19;\n\ncontract Estate {\n    \n    struct Estate {\n        address owner;\n        string info;\n        uint square;\n        bool sale_status;\n    }\n    \n    mapping (uint => Estate) public estates;\n    uint e_length = 0;\n\n    struct Sale {\n        uint estate_id;\n        address owner;\n        uint price;\n        address payable customer;\n        bool status;\n    }\n    \n    mapping (uint => Sale) public sales;\n    uint  s_length = 0;\n    \n    modifier isOwner(uint estate_id) {\n        require(msg.sender == estates[estate_id].owner);\n        require(estates[estate_id].sale_status == false);\n        _;\n    }\n   \n    address admin = 0x0000000000000000000000000000000000000000;\n                    \n    string adminPassword = \"\";\n\n    function set_admin(address _admin, string memory password) public{\n        admin = _admin;\n        adminPassword = password;\n    }\n\n    function get_admin() public returns(address){\n        return admin;\n    }\n\n    function get_adminPassword() public returns(string memory){\n        return adminPassword;\n    }\n   function show_name(uint index) public view returns(address) {\n    return estates[index].owner;\n}\n\nfunction show_info(uint index) public view returns(string memory) {\n    return estates[index].info;\n}\n\nfunction show_square(uint index) public view returns(uint) {\n    return estates[index].square;\n}\n\nfunction show_status(uint index) public view returns(bool) {\n    return estates[index].sale_status;\n}\n\n    \n    function create_estate(address owner, string memory info, uint square) public {\n        require(msg.sender == admin, \"You are not admin\");\n        estates[e_length] = Estate(owner, info, square, false);\n        e_length = e_length + 1;\n    }\n    \n    function create_sale(uint e_id, uint price, address owner) public isOwner(e_id) {\n        sales[s_length] = Sale(e_id, owner, price, payable (0x0000000000000000000000000000000000000000), true);\n        estates[e_id].sale_status = true;\n        s_length = s_length + 1;\n    }\n    \n    function buy(uint s_id, address payable owner, uint price) public payable {\n    sales[s_id].customer = owner;\n    sales[s_id].status = false;\n    uint e_id = sales[s_id].estate_id;\n    estates[e_id].sale_status = false;\n    owner.transfer(price); //    \n}\n\n\n    \n    function confirm_sale(uint s_id, uint u_id, address owner) public {\n    require(sales[s_id].status == true, \"Sale must be active\");\n    require(owner == sales[s_id].owner, \"Only the owner can confirm the sale\");\n\n    uint e_id = sales[s_id].estate_id;\n    address payable seller = payable(sales[s_id].owner);\n    address payable buyer = sales[s_id].customer;\n\n    require(address(this).balance >= sales[s_id].price, \"Contract does not have enough balance\");\n\n    seller.transfer(sales[s_id].price); //   \n    estates[e_id].owner = buyer; //   \n\n    sales[s_id].status = false; //     false\n    estates[e_id].sale_status = false; //       false\n}\n\n    \n    function get_sale(uint s_id) public view returns(uint, address, uint, address, bool) {\n        return(sales[s_id].estate_id, sales[s_id].owner, sales[s_id].price, sales[s_id].customer, sales[s_id].status);\n    }\n    \n    \n}\n",
  "sourcePath": "/Users/noskov/Desktop/OBTProject/contracts/contracts/Estate.sol",
  "compiler": {
    "name": "solc",
    "version": "0.8.19+commit.7dd6d404.Emscripten.clang"
  },
  "schemaVersion": "3.4.16",
  "updatedAt": "2024-03-18T11:32:53.951Z",
  "networkType": "ethereum",
  "devdoc": {
    "kind": "dev",
    "methods": {},
    "version": 1
  },
  "userdoc": {
    "kind": "user",
    "methods": {},
    "version": 1
  }
}